{
  "_format": "hh-sol-artifact-1",
  "contractName": "SpaceCockNFT",
  "sourceName": "contracts/SpaceCockNFT.sol",
  "abi": [
    {
      "inputs": [],
      "stateMutability": "nonpayable",
      "type": "constructor"
    },
    {
      "anonymous": false,
      "inputs": [
        {
          "indexed": true,
          "internalType": "address",
          "name": "owner",
          "type": "address"
        },
        {
          "indexed": true,
          "internalType": "address",
          "name": "approved",
          "type": "address"
        },
        {
          "indexed": true,
          "internalType": "uint256",
          "name": "tokenId",
          "type": "uint256"
        }
      ],
      "name": "Approval",
      "type": "event"
    },
    {
      "anonymous": false,
      "inputs": [
        {
          "indexed": true,
          "internalType": "address",
          "name": "owner",
          "type": "address"
        },
        {
          "indexed": true,
          "internalType": "address",
          "name": "operator",
          "type": "address"
        },
        {
          "indexed": false,
          "internalType": "bool",
          "name": "approved",
          "type": "bool"
        }
      ],
      "name": "ApprovalForAll",
      "type": "event"
    },
    {
      "anonymous": false,
      "inputs": [
        {
          "indexed": false,
          "internalType": "address",
          "name": "sender",
          "type": "address"
        },
        {
          "indexed": false,
          "internalType": "uint256",
          "name": "tokenId",
          "type": "uint256"
        }
      ],
      "name": "NewEpicNFTMinted",
      "type": "event"
    },
    {
      "anonymous": false,
      "inputs": [
        {
          "indexed": true,
          "internalType": "address",
          "name": "from",
          "type": "address"
        },
        {
          "indexed": true,
          "internalType": "address",
          "name": "to",
          "type": "address"
        },
        {
          "indexed": true,
          "internalType": "uint256",
          "name": "tokenId",
          "type": "uint256"
        }
      ],
      "name": "Transfer",
      "type": "event"
    },
    {
      "inputs": [
        {
          "internalType": "address",
          "name": "to",
          "type": "address"
        },
        {
          "internalType": "uint256",
          "name": "tokenId",
          "type": "uint256"
        }
      ],
      "name": "approve",
      "outputs": [],
      "stateMutability": "nonpayable",
      "type": "function"
    },
    {
      "inputs": [
        {
          "internalType": "address",
          "name": "owner",
          "type": "address"
        }
      ],
      "name": "balanceOf",
      "outputs": [
        {
          "internalType": "uint256",
          "name": "",
          "type": "uint256"
        }
      ],
      "stateMutability": "view",
      "type": "function"
    },
    {
      "inputs": [
        {
          "internalType": "uint256",
          "name": "tokenId",
          "type": "uint256"
        }
      ],
      "name": "getApproved",
      "outputs": [
        {
          "internalType": "address",
          "name": "",
          "type": "address"
        }
      ],
      "stateMutability": "view",
      "type": "function"
    },
    {
      "inputs": [],
      "name": "getTotalMintedNFTs",
      "outputs": [
        {
          "internalType": "uint256",
          "name": "",
          "type": "uint256"
        }
      ],
      "stateMutability": "view",
      "type": "function"
    },
    {
      "inputs": [
        {
          "internalType": "address",
          "name": "owner",
          "type": "address"
        },
        {
          "internalType": "address",
          "name": "operator",
          "type": "address"
        }
      ],
      "name": "isApprovedForAll",
      "outputs": [
        {
          "internalType": "bool",
          "name": "",
          "type": "bool"
        }
      ],
      "stateMutability": "view",
      "type": "function"
    },
    {
      "inputs": [],
      "name": "makeAnEpicNFT",
      "outputs": [],
      "stateMutability": "nonpayable",
      "type": "function"
    },
    {
      "inputs": [],
      "name": "name",
      "outputs": [
        {
          "internalType": "string",
          "name": "",
          "type": "string"
        }
      ],
      "stateMutability": "view",
      "type": "function"
    },
    {
      "inputs": [
        {
          "internalType": "uint256",
          "name": "tokenId",
          "type": "uint256"
        }
      ],
      "name": "ownerOf",
      "outputs": [
        {
          "internalType": "address",
          "name": "",
          "type": "address"
        }
      ],
      "stateMutability": "view",
      "type": "function"
    },
    {
      "inputs": [
        {
          "internalType": "uint256",
          "name": "tokenId",
          "type": "uint256"
        }
      ],
      "name": "pickRandomColor",
      "outputs": [
        {
          "internalType": "string",
          "name": "",
          "type": "string"
        }
      ],
      "stateMutability": "view",
      "type": "function"
    },
    {
      "inputs": [
        {
          "internalType": "uint256",
          "name": "tokenId",
          "type": "uint256"
        }
      ],
      "name": "pickRandomFirstWord",
      "outputs": [
        {
          "internalType": "string",
          "name": "",
          "type": "string"
        }
      ],
      "stateMutability": "view",
      "type": "function"
    },
    {
      "inputs": [
        {
          "internalType": "uint256",
          "name": "tokenId",
          "type": "uint256"
        }
      ],
      "name": "pickRandomSecondWord",
      "outputs": [
        {
          "internalType": "string",
          "name": "",
          "type": "string"
        }
      ],
      "stateMutability": "view",
      "type": "function"
    },
    {
      "inputs": [
        {
          "internalType": "uint256",
          "name": "tokenId",
          "type": "uint256"
        }
      ],
      "name": "pickRandomThirdWord",
      "outputs": [
        {
          "internalType": "string",
          "name": "",
          "type": "string"
        }
      ],
      "stateMutability": "view",
      "type": "function"
    },
    {
      "inputs": [
        {
          "internalType": "address",
          "name": "from",
          "type": "address"
        },
        {
          "internalType": "address",
          "name": "to",
          "type": "address"
        },
        {
          "internalType": "uint256",
          "name": "tokenId",
          "type": "uint256"
        }
      ],
      "name": "safeTransferFrom",
      "outputs": [],
      "stateMutability": "nonpayable",
      "type": "function"
    },
    {
      "inputs": [
        {
          "internalType": "address",
          "name": "from",
          "type": "address"
        },
        {
          "internalType": "address",
          "name": "to",
          "type": "address"
        },
        {
          "internalType": "uint256",
          "name": "tokenId",
          "type": "uint256"
        },
        {
          "internalType": "bytes",
          "name": "_data",
          "type": "bytes"
        }
      ],
      "name": "safeTransferFrom",
      "outputs": [],
      "stateMutability": "nonpayable",
      "type": "function"
    },
    {
      "inputs": [
        {
          "internalType": "address",
          "name": "operator",
          "type": "address"
        },
        {
          "internalType": "bool",
          "name": "approved",
          "type": "bool"
        }
      ],
      "name": "setApprovalForAll",
      "outputs": [],
      "stateMutability": "nonpayable",
      "type": "function"
    },
    {
      "inputs": [
        {
          "internalType": "bytes4",
          "name": "interfaceId",
          "type": "bytes4"
        }
      ],
      "name": "supportsInterface",
      "outputs": [
        {
          "internalType": "bool",
          "name": "",
          "type": "bool"
        }
      ],
      "stateMutability": "view",
      "type": "function"
    },
    {
      "inputs": [],
      "name": "symbol",
      "outputs": [
        {
          "internalType": "string",
          "name": "",
          "type": "string"
        }
      ],
      "stateMutability": "view",
      "type": "function"
    },
    {
      "inputs": [
        {
          "internalType": "uint256",
          "name": "tokenId",
          "type": "uint256"
        }
      ],
      "name": "tokenURI",
      "outputs": [
        {
          "internalType": "string",
          "name": "",
          "type": "string"
        }
      ],
      "stateMutability": "view",
      "type": "function"
    },
    {
      "inputs": [
        {
          "internalType": "address",
          "name": "from",
          "type": "address"
        },
        {
          "internalType": "address",
          "name": "to",
          "type": "address"
        },
        {
          "internalType": "uint256",
          "name": "tokenId",
          "type": "uint256"
        }
      ],
      "name": "transferFrom",
      "outputs": [],
      "stateMutability": "nonpayable",
      "type": "function"
    }
  ],
  "bytecode": "0x608060405260405180610100016040528060d681526020016200521360d69139600890805190602001906200003692919062000c79565b50604051806080016040528060568152602001620051bd60569139600990805190602001906200006892919062000c79565b506040518060400160405280601881526020017f3c747370616e20783d27353025272064793d2731656d273e0000000000000000815250600a9080519060200190620000b692919062000c79565b506040518060400160405280600881526020017f3c2f747370616e3e000000000000000000000000000000000000000000000000815250600b90805190602001906200010492919062000c79565b506040518060400160405280601881526020017f3c747370616e20783d27353025272064793d2732656d273e0000000000000000815250600c90805190602001906200015292919062000c79565b506040518060400160405280601b81526020017f576861742069732074686520616e7377657220746f206c6966652c0000000000815250600d9080519060200190620001a092919062000c79565b506040518060400160405280601d81526020017f74686520756e6976657273652c20616e642065766572797468696e673f000000815250600e9080519060200190620001ee92919062000c79565b506040518061014001604052806040518060400160405280600a81526020017f4661696c757265732c200000000000000000000000000000000000000000000081525081526020016040518060400160405280600981526020017f46726565646f6d2c20000000000000000000000000000000000000000000000081525081526020016040518060400160405280600a81526020017f42656c69657665732c200000000000000000000000000000000000000000000081525081526020016040518060400160405280600881526020017f47686f7374732c2000000000000000000000000000000000000000000000000081525081526020016040518060400160405280600a81526020017f486f6c69646179732c200000000000000000000000000000000000000000000081525081526020016040518060400160405280600a81526020017f50617469656e63652c200000000000000000000000000000000000000000000081525081526020016040518060400160405280600681526020017f43616c6d2c20000000000000000000000000000000000000000000000000000081525081526020016040518060400160405280600881526020017f416e67656c732c2000000000000000000000000000000000000000000000000081525081526020016040518060400160405280600781526020017f46616974682c200000000000000000000000000000000000000000000000000081525081526020016040518060400160405280600781526020017f50656163652c2000000000000000000000000000000000000000000000000000815250815250600f90600a6200045992919062000d0a565b506040518061014001604052806040518060400160405280601081526020017f4578706c6f73696f6e732c20616e64200000000000000000000000000000000081525081526020016040518060400160405280600a81526020017f466973682c20616e64200000000000000000000000000000000000000000000081525081526020016040518060400160405280600f81526020017f436f6d7075746572732c20616e6420000000000000000000000000000000000081525081526020016040518060400160405280600a81526020017f4e7574732c20616e64200000000000000000000000000000000000000000000081525081526020016040518060400160405280600d81526020017f506c616e6574732c20616e64200000000000000000000000000000000000000081525081526020016040518060400160405280601081526020017f43656d657465726965732c20616e64200000000000000000000000000000000081525081526020016040518060400160405280600b81526020017f59616368742c20616e642000000000000000000000000000000000000000000081525081526020016040518060400160405280600e81526020017f4c6f6273746572732c20616e642000000000000000000000000000000000000081525081526020016040518060400160405280600c81526020017f547261696e732c20616e6420000000000000000000000000000000000000000081525081526020016040518060400160405280600a81526020017f44616e63652c20616e6400000000000000000000000000000000000000000000815250815250601090600a620006c492919062000d0a565b506040518061014001604052806040518060400160405280600481526020017f47756e730000000000000000000000000000000000000000000000000000000081525081526020016040518060400160405280600781526020017f43656c6c6172730000000000000000000000000000000000000000000000000081525081526020016040518060400160405280600481526020017f436f77730000000000000000000000000000000000000000000000000000000081525081526020016040518060400160405280600a81526020017f46697265706c616365730000000000000000000000000000000000000000000081525081526020016040518060400160405280600a81526020017f4d6f746f7262696b65730000000000000000000000000000000000000000000081525081526020016040518060400160405280600781526020017f537069646572730000000000000000000000000000000000000000000000000081525081526020016040518060400160405280600481526020017f436172730000000000000000000000000000000000000000000000000000000081525081526020016040518060400160405280600581526020017f506970657300000000000000000000000000000000000000000000000000000081525081526020016040518060400160405280600781526020017f476c61737365730000000000000000000000000000000000000000000000000081525081526020016040518060400160405280600881526020017f41766f6361646f73000000000000000000000000000000000000000000000000815250815250601190600a6200092f92919062000d0a565b506040518060c001604052806040518060400160405280600781526020017f234633453836320000000000000000000000000000000000000000000000000081525081526020016040518060400160405280600781526020017f233038433241380000000000000000000000000000000000000000000000000081525081526020016040518060400160405280600781526020017f234634393241370000000000000000000000000000000000000000000000000081525081526020016040518060400160405280600781526020017f234231373745440000000000000000000000000000000000000000000000000081525081526020016040518060400160405280600781526020017f233743443845440000000000000000000000000000000000000000000000000081525081526020016040518060400160405280600781526020017f2336374538424100000000000000000000000000000000000000000000000000815250815250601290600662000aad92919062000d71565b5034801562000abb57600080fd5b506040518060400160405280600d81526020017f4d65616e696e674f664c696665000000000000000000000000000000000000008152506040518060400160405280600281526020017f3432000000000000000000000000000000000000000000000000000000000000815250816000908051906020019062000b4092919062000c79565b50806001908051906020019062000b5992919062000c79565b50505062000ba76040518060400160405280601881526020017f54686973206973206d79204e465420636f6e74726163742e000000000000000081525062000bad60201b6200151a1760201c565b62000f92565b62000c4d8160405160240162000bc4919062000ea6565b6040516020818303038152906040527f41304fac000000000000000000000000000000000000000000000000000000007bffffffffffffffffffffffffffffffffffffffffffffffffffffffff19166020820180517bffffffffffffffffffffffffffffffffffffffffffffffffffffffff838183161783525050505062000c5060201b60201c565b50565b60008151905060006a636f6e736f6c652e6c6f679050602083016000808483855afa5050505050565b82805462000c879062000f1c565b90600052602060002090601f01602090048101928262000cab576000855562000cf7565b82601f1062000cc657805160ff191683800117855562000cf7565b8280016001018555821562000cf7579182015b8281111562000cf657825182559160200191906001019062000cd9565b5b50905062000d06919062000dd8565b5090565b82805482825590600052602060002090810192821562000d5e579160200282015b8281111562000d5d57825182908051906020019062000d4c92919062000c79565b509160200191906001019062000d2b565b5b50905062000d6d919062000df7565b5090565b82805482825590600052602060002090810192821562000dc5579160200282015b8281111562000dc457825182908051906020019062000db392919062000c79565b509160200191906001019062000d92565b5b50905062000dd4919062000df7565b5090565b5b8082111562000df357600081600090555060010162000dd9565b5090565b5b8082111562000e1b576000818162000e11919062000e1f565b5060010162000df8565b5090565b50805462000e2d9062000f1c565b6000825580601f1062000e41575062000e62565b601f01602090049060005260206000209081019062000e61919062000dd8565b5b50565b600062000e728262000eca565b62000e7e818562000ed5565b935062000e9081856020860162000ee6565b62000e9b8162000f81565b840191505092915050565b6000602082019050818103600083015262000ec2818462000e65565b905092915050565b600081519050919050565b600082825260208201905092915050565b60005b8381101562000f0657808201518184015260208101905062000ee9565b8381111562000f16576000848401525b50505050565b6000600282049050600182168062000f3557607f821691505b6020821081141562000f4c5762000f4b62000f52565b5b50919050565b7f4e487b7100000000000000000000000000000000000000000000000000000000600052602260045260246000fd5b6000601f19601f8301169050919050565b61421b8062000fa26000396000f3fe608060405234801561001057600080fd5b50600436106101215760003560e01c80636352211e116100ad578063b88d4fde11610071578063b88d4fde14610340578063c575757a1461035c578063c87b56dd1461038c578063de9d132f146103bc578063e985e9c5146103c657610121565b80636352211e1461027657806370a08231146102a657806395d89b41146102d6578063a22cb465146102f4578063b187301f1461031057610121565b806323b872dd116100f457806323b872dd146101c05780632de38d68146101dc57806342842e0e1461020c578063514dc8c6146102285780635a2e65041461025857610121565b806301ffc9a71461012657806306fdde0314610156578063081812fc14610174578063095ea7b3146101a4575b600080fd5b610140600480360381019061013b9190612a52565b6103f6565b60405161014d91906132bf565b60405180910390f35b61015e6104d8565b60405161016b91906132da565b60405180910390f35b61018e60048036038101906101899190612aa4565b61056a565b60405161019b919061322f565b60405180910390f35b6101be60048036038101906101b99190612a16565b6105ef565b005b6101da60048036038101906101d59190612910565b610707565b005b6101f660048036038101906101f19190612aa4565b610767565b60405161020391906132da565b60405180910390f35b61022660048036038101906102219190612910565b61097d565b005b610242600480360381019061023d9190612aa4565b61099d565b60405161024f91906132da565b60405180910390f35b610260610ac5565b60405161026d91906135c1565b60405180910390f35b610290600480360381019061028b9190612aa4565b610af3565b60405161029d919061322f565b60405180910390f35b6102c060048036038101906102bb91906128ab565b610ba5565b6040516102cd91906135c1565b60405180910390f35b6102de610c5d565b6040516102eb91906132da565b60405180910390f35b61030e600480360381019061030991906129da565b610cef565b005b61032a60048036038101906103259190612aa4565b610d05565b60405161033791906132da565b60405180910390f35b61035a6004803603810190610355919061295f565b610f1b565b005b61037660048036038101906103719190612aa4565b610f7d565b60405161038391906132da565b60405180910390f35b6103a660048036038101906103a19190612aa4565b6110a5565b6040516103b391906132da565b60405180910390f35b6103c46111f7565b005b6103e060048036038101906103db91906128d4565b611486565b6040516103ed91906132bf565b60405180910390f35b60007f80ac58cd000000000000000000000000000000000000000000000000000000007bffffffffffffffffffffffffffffffffffffffffffffffffffffffff1916827bffffffffffffffffffffffffffffffffffffffffffffffffffffffff191614806104c157507f5b5e139f000000000000000000000000000000000000000000000000000000007bffffffffffffffffffffffffffffffffffffffffffffffffffffffff1916827bffffffffffffffffffffffffffffffffffffffffffffffffffffffff1916145b806104d157506104d0826115b3565b5b9050919050565b6060600080546104e790613855565b80601f016020809104026020016040519081016040528092919081815260200182805461051390613855565b80156105605780601f1061053557610100808354040283529160200191610560565b820191906000526020600020905b81548152906001019060200180831161054357829003601f168201915b5050505050905090565b60006105758261161d565b6105b4576040517f08c379a00000000000000000000000000000000000000000000000000000000081526004016105ab90613521565b60405180910390fd5b6004600083815260200190815260200160002060009054906101000a900473ffffffffffffffffffffffffffffffffffffffff169050919050565b60006105fa82610af3565b90508073ffffffffffffffffffffffffffffffffffffffff168373ffffffffffffffffffffffffffffffffffffffff16141561066b576040517f08c379a000000000000000000000000000000000000000000000000000000000815260040161066290613581565b60405180910390fd5b8073ffffffffffffffffffffffffffffffffffffffff1661068a611689565b73ffffffffffffffffffffffffffffffffffffffff1614806106b957506106b8816106b3611689565b611486565b5b6106f8576040517f08c379a00000000000000000000000000000000000000000000000000000000081526004016106ef90613461565b60405180910390fd5b6107028383611691565b505050565b610718610712611689565b8261174a565b610757576040517f08c379a000000000000000000000000000000000000000000000000000000000815260040161074e906135a1565b60405180910390fd5b610762838383611828565b505050565b60606107d96040518060400160405280601581526020017f6162692e656e636f64655061636b6564286172672900000000000000000000008152506107ab42611a84565b6107b485611a84565b6040516020016107c592919061310c565b604051602081830303815290604052611c31565b60006108156107e742611a84565b6107f085611a84565b60405160200161080192919061310c565b604051602081830303815290604052611ccd565b90506108566040518060400160405280600481526020017f72616e640000000000000000000000000000000000000000000000000000000081525082611d00565b600f80549050816108679190613901565b90506108a86040518060400160405280600d81526020017f53717561736865642072616e640000000000000000000000000000000000000081525082611d00565b600f81815481106108e2577f4e487b7100000000000000000000000000000000000000000000000000000000600052603260045260246000fd5b9060005260206000200180546108f790613855565b80601f016020809104026020016040519081016040528092919081815260200182805461092390613855565b80156109705780601f1061094557610100808354040283529160200191610970565b820191906000526020600020905b81548152906001019060200180831161095357829003601f168201915b5050505050915050919050565b61099883838360405180602001604052806000815250610f1b565b505050565b606060006109db6109ad42611a84565b6109b685611a84565b6040516020016109c7929190613200565b604051602081830303815290604052611ccd565b9050601280549050816109ee9190613901565b905060128181548110610a2a577f4e487b7100000000000000000000000000000000000000000000000000000000600052603260045260246000fd5b906000526020600020018054610a3f90613855565b80601f0160208091040260200160405190810160405280929190818152602001828054610a6b90613855565b8015610ab85780601f10610a8d57610100808354040283529160200191610ab8565b820191906000526020600020905b815481529060010190602001808311610a9b57829003601f168201915b5050505050915050919050565b6000610aeb60405180606001604052806026815260200161415b60269139601354611d00565b601354905090565b6000806002600084815260200190815260200160002060009054906101000a900473ffffffffffffffffffffffffffffffffffffffff169050600073ffffffffffffffffffffffffffffffffffffffff168173ffffffffffffffffffffffffffffffffffffffff161415610b9c576040517f08c379a0000000000000000000000000000000000000000000000000000000008152600401610b93906134a1565b60405180910390fd5b80915050919050565b60008073ffffffffffffffffffffffffffffffffffffffff168273ffffffffffffffffffffffffffffffffffffffff161415610c16576040517f08c379a0000000000000000000000000000000000000000000000000000000008152600401610c0d90613481565b60405180910390fd5b600360008373ffffffffffffffffffffffffffffffffffffffff1673ffffffffffffffffffffffffffffffffffffffff168152602001908152602001600020549050919050565b606060018054610c6c90613855565b80601f0160208091040260200160405190810160405280929190818152602001828054610c9890613855565b8015610ce55780601f10610cba57610100808354040283529160200191610ce5565b820191906000526020600020905b815481529060010190602001808311610cc857829003601f168201915b5050505050905090565b610d01610cfa611689565b8383611d9c565b5050565b6060610d776040518060400160405280601581526020017f6162692e656e636f64655061636b656428617267290000000000000000000000815250610d4942611a84565b610d5285611a84565b604051602001610d6392919061313b565b604051602081830303815290604052611c31565b6000610db3610d8542611a84565b610d8e85611a84565b604051602001610d9f92919061313b565b604051602081830303815290604052611ccd565b9050610df46040518060400160405280600481526020017f72616e640000000000000000000000000000000000000000000000000000000081525082611d00565b60108054905081610e059190613901565b9050610e466040518060400160405280600d81526020017f53717561736865642072616e640000000000000000000000000000000000000081525082611d00565b60108181548110610e80577f4e487b7100000000000000000000000000000000000000000000000000000000600052603260045260246000fd5b906000526020600020018054610e9590613855565b80601f0160208091040260200160405190810160405280929190818152602001828054610ec190613855565b8015610f0e5780601f10610ee357610100808354040283529160200191610f0e565b820191906000526020600020905b815481529060010190602001808311610ef157829003601f168201915b5050505050915050919050565b610f2c610f26611689565b8361174a565b610f6b576040517f08c379a0000000000000000000000000000000000000000000000000000000008152600401610f62906135a1565b60405180910390fd5b610f7784848484611f09565b50505050565b60606000610fbb610f8d42611a84565b610f9685611a84565b604051602001610fa79291906131af565b604051602081830303815290604052611ccd565b905060118054905081610fce9190613901565b90506011818154811061100a577f4e487b7100000000000000000000000000000000000000000000000000000000600052603260045260246000fd5b90600052602060002001805461101f90613855565b80601f016020809104026020016040519081016040528092919081815260200182805461104b90613855565b80156110985780601f1061106d57610100808354040283529160200191611098565b820191906000526020600020905b81548152906001019060200180831161107b57829003601f168201915b5050505050915050919050565b60606110b08261161d565b6110ef576040517f08c379a00000000000000000000000000000000000000000000000000000000081526004016110e690613501565b60405180910390fd5b600060066000848152602001908152602001600020805461110f90613855565b80601f016020809104026020016040519081016040528092919081815260200182805461113b90613855565b80156111885780601f1061115d57610100808354040283529160200191611188565b820191906000526020600020905b81548152906001019060200180831161116b57829003601f168201915b505050505090506000611199611f65565b90506000815114156111af5781925050506111f2565b6000825111156111e45780826040516020016111cc929190612fe4565b604051602081830303815290604052925050506111f2565b6111ed84611f7c565b925050505b919050565b6013600081548092919061120a906138b8565b9190505550602a6013541115611255576040517f08c379a000000000000000000000000000000000000000000000000000000000815260040161124c906133e1565b60405180910390fd5b60006112616007612023565b9050600061126e82610767565b9050600061127b83610d05565b9050600061128884610f7d565b905060008383836040516020016112a193929190613008565b604051602081830303815290604052905060006112bd8661099d565b905060006008826009600a600d600b600a600e600b600c8c600b6040516020016112f29c9b9a99989796959493929190613039565b604051602081830303815290604052905060006113378461131284612031565b60405160200161132392919061316a565b604051602081830303815290604052612031565b905060008160405160200161134c91906131de565b604051602081830303815290604052905061139b6040518060400160405280601581526020017f0a2d2d2d2d2d2d2d2d2d2d2d2d2d2d2d2d2d2d2d2d000000000000000000000081525061151a565b6113c3816040516020016113af91906130ea565b60405160208183030381529060405261151a565b6114016040518060400160405280601581526020017f2d2d2d2d2d2d2d2d2d2d2d2d2d2d2d2d2d2d2d2d0a000000000000000000000081525061151a565b61140b338a6121ef565b7febb98688741ffa4c7589bf325de30cf7becb63de567842e1ccdb6cb949fdc82c338a60405161143c929190613296565b60405180910390a161144e898261220d565b6114586007612281565b61147b604051806060016040528060258152602001614181602591398a33612297565b505050505050505050565b6000600560008473ffffffffffffffffffffffffffffffffffffffff1673ffffffffffffffffffffffffffffffffffffffff16815260200190815260200160002060008373ffffffffffffffffffffffffffffffffffffffff1673ffffffffffffffffffffffffffffffffffffffff16815260200190815260200160002060009054906101000a900460ff16905092915050565b6115b08160405160240161152e91906132da565b6040516020818303038152906040527f41304fac000000000000000000000000000000000000000000000000000000007bffffffffffffffffffffffffffffffffffffffffffffffffffffffff19166020820180517bffffffffffffffffffffffffffffffffffffffffffffffffffffffff8381831617835250505050612336565b50565b60007f01ffc9a7000000000000000000000000000000000000000000000000000000007bffffffffffffffffffffffffffffffffffffffffffffffffffffffff1916827bffffffffffffffffffffffffffffffffffffffffffffffffffffffff1916149050919050565b60008073ffffffffffffffffffffffffffffffffffffffff166002600084815260200190815260200160002060009054906101000a900473ffffffffffffffffffffffffffffffffffffffff1673ffffffffffffffffffffffffffffffffffffffff1614159050919050565b600033905090565b816004600083815260200190815260200160002060006101000a81548173ffffffffffffffffffffffffffffffffffffffff021916908373ffffffffffffffffffffffffffffffffffffffff160217905550808273ffffffffffffffffffffffffffffffffffffffff1661170483610af3565b73ffffffffffffffffffffffffffffffffffffffff167f8c5be1e5ebec7d5bd14f71427d1e84f3dd0314c0f7b2291e5b200ac8c7c3b92560405160405180910390a45050565b60006117558261161d565b611794576040517f08c379a000000000000000000000000000000000000000000000000000000000815260040161178b90613441565b60405180910390fd5b600061179f83610af3565b90508073ffffffffffffffffffffffffffffffffffffffff168473ffffffffffffffffffffffffffffffffffffffff16148061180e57508373ffffffffffffffffffffffffffffffffffffffff166117f68461056a565b73ffffffffffffffffffffffffffffffffffffffff16145b8061181f575061181e8185611486565b5b91505092915050565b8273ffffffffffffffffffffffffffffffffffffffff1661184882610af3565b73ffffffffffffffffffffffffffffffffffffffff161461189e576040517f08c379a000000000000000000000000000000000000000000000000000000000815260040161189590613541565b60405180910390fd5b600073ffffffffffffffffffffffffffffffffffffffff168273ffffffffffffffffffffffffffffffffffffffff16141561190e576040517f08c379a000000000000000000000000000000000000000000000000000000000815260040161190590613401565b60405180910390fd5b61191983838361235f565b611924600082611691565b6001600360008573ffffffffffffffffffffffffffffffffffffffff1673ffffffffffffffffffffffffffffffffffffffff1681526020019081526020016000206000828254611974919061376b565b925050819055506001600360008473ffffffffffffffffffffffffffffffffffffffff1673ffffffffffffffffffffffffffffffffffffffff16815260200190815260200160002060008282546119cb919061368a565b92505081905550816002600083815260200190815260200160002060006101000a81548173ffffffffffffffffffffffffffffffffffffffff021916908373ffffffffffffffffffffffffffffffffffffffff160217905550808273ffffffffffffffffffffffffffffffffffffffff168473ffffffffffffffffffffffffffffffffffffffff167fddf252ad1be2c89b69c2b068fc378daa952ba7f163c4a11628f55a4df523b3ef60405160405180910390a4505050565b60606000821415611acc576040518060400160405280600181526020017f30000000000000000000000000000000000000000000000000000000000000008152509050611c2c565b600082905060005b60008214611afe578080611ae7906138b8565b915050600a82611af791906136e0565b9150611ad4565b60008167ffffffffffffffff811115611b40577f4e487b7100000000000000000000000000000000000000000000000000000000600052604160045260246000fd5b6040519080825280601f01601f191660200182016040528015611b725781602001600182028036833780820191505090505b5090505b60008514611c2557600182611b8b919061376b565b9150600a85611b9a9190613901565b6030611ba6919061368a565b60f81b818381518110611be2577f4e487b7100000000000000000000000000000000000000000000000000000000600052603260045260246000fd5b60200101907effffffffffffffffffffffffffffffffffffffffffffffffffffffffffffff1916908160001a905350600a85611c1e91906136e0565b9450611b76565b8093505050505b919050565b611cc98282604051602401611c479291906132fc565b6040516020818303038152906040527f4b5c4277000000000000000000000000000000000000000000000000000000007bffffffffffffffffffffffffffffffffffffffffffffffffffffffff19166020820180517bffffffffffffffffffffffffffffffffffffffffffffffffffffffff8381831617835250505050612336565b5050565b600081604051602001611ce09190612fcd565b6040516020818303038152906040528051906020012060001c9050919050565b611d988282604051602401611d16929190613333565b6040516020818303038152906040527f9710a9d0000000000000000000000000000000000000000000000000000000007bffffffffffffffffffffffffffffffffffffffffffffffffffffffff19166020820180517bffffffffffffffffffffffffffffffffffffffffffffffffffffffff8381831617835250505050612336565b5050565b8173ffffffffffffffffffffffffffffffffffffffff168373ffffffffffffffffffffffffffffffffffffffff161415611e0b576040517f08c379a0000000000000000000000000000000000000000000000000000000008152600401611e0290613421565b60405180910390fd5b80600560008573ffffffffffffffffffffffffffffffffffffffff1673ffffffffffffffffffffffffffffffffffffffff16815260200190815260200160002060008473ffffffffffffffffffffffffffffffffffffffff1673ffffffffffffffffffffffffffffffffffffffff16815260200190815260200160002060006101000a81548160ff0219169083151502179055508173ffffffffffffffffffffffffffffffffffffffff168373ffffffffffffffffffffffffffffffffffffffff167f17307eab39ab6107e8899845ad3d59bd9653f200f220920489ca2b5937696c3183604051611efc91906132bf565b60405180910390a3505050565b611f14848484611828565b611f2084848484612364565b611f5f576040517f08c379a0000000000000000000000000000000000000000000000000000000008152600401611f56906133a1565b60405180910390fd5b50505050565b606060405180602001604052806000815250905090565b6060611f878261161d565b611fc6576040517f08c379a0000000000000000000000000000000000000000000000000000000008152600401611fbd90613561565b60405180910390fd5b6000611fd0611f65565b90506000815111611ff0576040518060200160405280600081525061201b565b80611ffa84611a84565b60405160200161200b929190612fe4565b6040516020818303038152906040525b915050919050565b600081600001549050919050565b6060600082519050600081141561205a57604051806020016040528060008152509150506121ea565b6000600360028361206b919061368a565b61207591906136e0565b60046120819190613711565b90506000602082612092919061368a565b67ffffffffffffffff8111156120d1577f4e487b7100000000000000000000000000000000000000000000000000000000600052604160045260246000fd5b6040519080825280601f01601f1916602001820160405280156121035781602001600182028036833780820191505090505b50905060006040518060600160405280604081526020016141a6604091399050600181016020830160005b868110156121a75760038101905062ffffff818a015116603f8160121c168401518060081b905060ff603f83600c1c1686015116810190508060081b905060ff603f8360061c1686015116810190508060081b905060ff603f831686015116810190508060e01b9050808452600484019350505061212e565b5060038606600181146121c157600281146121d1576121dc565b613d3d60f01b60028303526121dc565b603d60f81b60018303525b508484525050819450505050505b919050565b6122098282604051806020016040528060008152506124fb565b5050565b6122168261161d565b612255576040517f08c379a000000000000000000000000000000000000000000000000000000000815260040161224c906134c1565b60405180910390fd5b8060066000848152602001908152602001600020908051906020019061227c929190612737565b505050565b6001816000016000828254019250508190555050565b6123318383836040516024016122af93929190613363565b6040516020818303038152906040527fe3849f79000000000000000000000000000000000000000000000000000000007bffffffffffffffffffffffffffffffffffffffffffffffffffffffff19166020820180517bffffffffffffffffffffffffffffffffffffffffffffffffffffffff8381831617835250505050612336565b505050565b60008151905060006a636f6e736f6c652e6c6f679050602083016000808483855afa5050505050565b505050565b60006123858473ffffffffffffffffffffffffffffffffffffffff16612556565b156124ee578373ffffffffffffffffffffffffffffffffffffffff1663150b7a026123ae611689565b8786866040518563ffffffff1660e01b81526004016123d0949392919061324a565b602060405180830381600087803b1580156123ea57600080fd5b505af192505050801561241b57506040513d601f19601f820116820180604052508101906124189190612a7b565b60015b61249e573d806000811461244b576040519150601f19603f3d011682016040523d82523d6000602084013e612450565b606091505b50600081511415612496576040517f08c379a000000000000000000000000000000000000000000000000000000000815260040161248d906133a1565b60405180910390fd5b805181602001fd5b63150b7a0260e01b7bffffffffffffffffffffffffffffffffffffffffffffffffffffffff1916817bffffffffffffffffffffffffffffffffffffffffffffffffffffffff1916149150506124f3565b600190505b949350505050565b6125058383612569565b6125126000848484612364565b612551576040517f08c379a0000000000000000000000000000000000000000000000000000000008152600401612548906133a1565b60405180910390fd5b505050565b600080823b905060008111915050919050565b600073ffffffffffffffffffffffffffffffffffffffff168273ffffffffffffffffffffffffffffffffffffffff1614156125d9576040517f08c379a00000000000000000000000000000000000000000000000000000000081526004016125d0906134e1565b60405180910390fd5b6125e28161161d565b15612622576040517f08c379a0000000000000000000000000000000000000000000000000000000008152600401612619906133c1565b60405180910390fd5b61262e6000838361235f565b6001600360008473ffffffffffffffffffffffffffffffffffffffff1673ffffffffffffffffffffffffffffffffffffffff168152602001908152602001600020600082825461267e919061368a565b92505081905550816002600083815260200190815260200160002060006101000a81548173ffffffffffffffffffffffffffffffffffffffff021916908373ffffffffffffffffffffffffffffffffffffffff160217905550808273ffffffffffffffffffffffffffffffffffffffff16600073ffffffffffffffffffffffffffffffffffffffff167fddf252ad1be2c89b69c2b068fc378daa952ba7f163c4a11628f55a4df523b3ef60405160405180910390a45050565b82805461274390613855565b90600052602060002090601f01602090048101928261276557600085556127ac565b82601f1061277e57805160ff19168380011785556127ac565b828001600101855582156127ac579182015b828111156127ab578251825591602001919060010190612790565b5b5090506127b991906127bd565b5090565b5b808211156127d65760008160009055506001016127be565b5090565b60006127ed6127e884613601565b6135dc565b90508281526020810184848401111561280557600080fd5b612810848285613813565b509392505050565b600081359050612827816140fe565b92915050565b60008135905061283c81614115565b92915050565b6000813590506128518161412c565b92915050565b6000815190506128668161412c565b92915050565b600082601f83011261287d57600080fd5b813561288d8482602086016127da565b91505092915050565b6000813590506128a581614143565b92915050565b6000602082840312156128bd57600080fd5b60006128cb84828501612818565b91505092915050565b600080604083850312156128e757600080fd5b60006128f585828601612818565b925050602061290685828601612818565b9150509250929050565b60008060006060848603121561292557600080fd5b600061293386828701612818565b935050602061294486828701612818565b925050604061295586828701612896565b9150509250925092565b6000806000806080858703121561297557600080fd5b600061298387828801612818565b945050602061299487828801612818565b93505060406129a587828801612896565b925050606085013567ffffffffffffffff8111156129c257600080fd5b6129ce8782880161286c565b91505092959194509250565b600080604083850312156129ed57600080fd5b60006129fb85828601612818565b9250506020612a0c8582860161282d565b9150509250929050565b60008060408385031215612a2957600080fd5b6000612a3785828601612818565b9250506020612a4885828601612896565b9150509250929050565b600060208284031215612a6457600080fd5b6000612a7284828501612842565b91505092915050565b600060208284031215612a8d57600080fd5b6000612a9b84828501612857565b91505092915050565b600060208284031215612ab657600080fd5b6000612ac484828501612896565b91505092915050565b612ad68161379f565b82525050565b612ae5816137b1565b82525050565b6000612af682613647565b612b00818561365d565b9350612b10818560208601613822565b612b19816139ee565b840191505092915050565b6000612b2f82613652565b612b39818561366e565b9350612b49818560208601613822565b612b52816139ee565b840191505092915050565b6000612b6882613652565b612b72818561367f565b9350612b82818560208601613822565b80840191505092915050565b60008154612b9b81613855565b612ba5818661367f565b94506001821660008114612bc05760018114612bd157612c04565b60ff19831686528186019350612c04565b612bda85613632565b60005b83811015612bfc57815481890152600182019150602081019050612bdd565b838801955050505b50505092915050565b6000612c1a60258361367f565b9150612c25826139ff565b602582019050919050565b6000612c3d60328361366e565b9150612c4882613a4e565b604082019050919050565b6000612c60601c8361366e565b9150612c6b82613a9d565b602082019050919050565b6000612c8360368361366e565b9150612c8e82613ac6565b604082019050919050565b6000612ca660058361367f565b9150612cb182613b15565b600582019050919050565b6000612cc960248361366e565b9150612cd482613b3e565b604082019050919050565b6000612cec60198361366e565b9150612cf782613b8d565b602082019050919050565b6000612d0f60638361367f565b9150612d1a82613bb6565b606382019050919050565b6000612d32602c8361366e565b9150612d3d82613c51565b604082019050919050565b6000612d55600d8361367f565b9150612d6082613ca0565b600d82019050919050565b6000612d7860388361366e565b9150612d8382613cc9565b604082019050919050565b6000612d9b602a8361366e565b9150612da682613d18565b604082019050919050565b6000612dbe60298361366e565b9150612dc982613d67565b604082019050919050565b6000612de1602e8361366e565b9150612dec82613db6565b604082019050919050565b6000612e0460068361367f565b9150612e0f82613e05565b600682019050919050565b6000612e2760028361367f565b9150612e3282613e2e565b600282019050919050565b6000612e4a60208361366e565b9150612e5582613e57565b602082019050919050565b6000612e6d60318361366e565b9150612e7882613e80565b604082019050919050565b6000612e90602c8361366e565b9150612e9b82613ecf565b604082019050919050565b6000612eb360298361366e565b9150612ebe82613f1e565b604082019050919050565b6000612ed6602f8361366e565b9150612ee182613f6d565b604082019050919050565b6000612ef9600a8361367f565b9150612f0482613fbc565b600a82019050919050565b6000612f1c60058361367f565b9150612f2782613fe5565b600582019050919050565b6000612f3f60218361366e565b9150612f4a8261400e565b604082019050919050565b6000612f62601d8361367f565b9150612f6d8261405d565b601d82019050919050565b6000612f8560318361366e565b9150612f9082614086565b604082019050919050565b6000612fa860058361367f565b9150612fb3826140d5565b600582019050919050565b612fc781613809565b82525050565b6000612fd98284612b5d565b915081905092915050565b6000612ff08285612b5d565b9150612ffc8284612b5d565b91508190509392505050565b60006130148286612b5d565b91506130208285612b5d565b915061302c8284612b5d565b9150819050949350505050565b6000613045828f612b8e565b9150613051828e612b5d565b915061305d828d612b8e565b9150613069828c612b8e565b9150613075828b612b8e565b9150613081828a612b8e565b915061308d8289612b8e565b91506130998288612b8e565b91506130a58287612b8e565b91506130b18286612b8e565b91506130bd8285612b5d565b91506130c98284612b8e565b91506130d482612d48565b91508190509d9c50505050505050505050505050565b60006130f582612c0d565b91506131018284612b5d565b915081905092915050565b600061311782612c99565b91506131238285612b5d565b915061312f8284612b5d565b91508190509392505050565b600061314682612df7565b91506131528285612b5d565b915061315e8284612b5d565b91508190509392505050565b600061317582612eec565b91506131818285612b5d565b915061318c82612d02565b91506131988284612b5d565b91506131a382612e1a565b91508190509392505050565b60006131ba82612f0f565b91506131c68285612b5d565b91506131d28284612b5d565b91508190509392505050565b60006131e982612f55565b91506131f58284612b5d565b915081905092915050565b600061320b82612f9b565b91506132178285612b5d565b91506132238284612b5d565b91508190509392505050565b60006020820190506132446000830184612acd565b92915050565b600060808201905061325f6000830187612acd565b61326c6020830186612acd565b6132796040830185612fbe565b818103606083015261328b8184612aeb565b905095945050505050565b60006040820190506132ab6000830185612acd565b6132b86020830184612fbe565b9392505050565b60006020820190506132d46000830184612adc565b92915050565b600060208201905081810360008301526132f48184612b24565b905092915050565b600060408201905081810360008301526133168185612b24565b9050818103602083015261332a8184612b24565b90509392505050565b6000604082019050818103600083015261334d8185612b24565b905061335c6020830184612fbe565b9392505050565b6000606082019050818103600083015261337d8186612b24565b905061338c6020830185612fbe565b6133996040830184612acd565b949350505050565b600060208201905081810360008301526133ba81612c30565b9050919050565b600060208201905081810360008301526133da81612c53565b9050919050565b600060208201905081810360008301526133fa81612c76565b9050919050565b6000602082019050818103600083015261341a81612cbc565b9050919050565b6000602082019050818103600083015261343a81612cdf565b9050919050565b6000602082019050818103600083015261345a81612d25565b9050919050565b6000602082019050818103600083015261347a81612d6b565b9050919050565b6000602082019050818103600083015261349a81612d8e565b9050919050565b600060208201905081810360008301526134ba81612db1565b9050919050565b600060208201905081810360008301526134da81612dd4565b9050919050565b600060208201905081810360008301526134fa81612e3d565b9050919050565b6000602082019050818103600083015261351a81612e60565b9050919050565b6000602082019050818103600083015261353a81612e83565b9050919050565b6000602082019050818103600083015261355a81612ea6565b9050919050565b6000602082019050818103600083015261357a81612ec9565b9050919050565b6000602082019050818103600083015261359a81612f32565b9050919050565b600060208201905081810360008301526135ba81612f78565b9050919050565b60006020820190506135d66000830184612fbe565b92915050565b60006135e66135f7565b90506135f28282613887565b919050565b6000604051905090565b600067ffffffffffffffff82111561361c5761361b6139bf565b5b613625826139ee565b9050602081019050919050565b60008190508160005260206000209050919050565b600081519050919050565b600081519050919050565b600082825260208201905092915050565b600082825260208201905092915050565b600081905092915050565b600061369582613809565b91506136a083613809565b9250827fffffffffffffffffffffffffffffffffffffffffffffffffffffffffffffffff038211156136d5576136d4613932565b5b828201905092915050565b60006136eb82613809565b91506136f683613809565b92508261370657613705613961565b5b828204905092915050565b600061371c82613809565b915061372783613809565b9250817fffffffffffffffffffffffffffffffffffffffffffffffffffffffffffffffff04831182151516156137605761375f613932565b5b828202905092915050565b600061377682613809565b915061378183613809565b92508282101561379457613793613932565b5b828203905092915050565b60006137aa826137e9565b9050919050565b60008115159050919050565b60007fffffffff0000000000000000000000000000000000000000000000000000000082169050919050565b600073ffffffffffffffffffffffffffffffffffffffff82169050919050565b6000819050919050565b82818337600083830152505050565b60005b83811015613840578082015181840152602081019050613825565b8381111561384f576000848401525b50505050565b6000600282049050600182168061386d57607f821691505b6020821081141561388157613880613990565b5b50919050565b613890826139ee565b810181811067ffffffffffffffff821117156138af576138ae6139bf565b5b80604052505050565b60006138c382613809565b91507fffffffffffffffffffffffffffffffffffffffffffffffffffffffffffffffff8214156138f6576138f5613932565b5b600182019050919050565b600061390c82613809565b915061391783613809565b92508261392757613926613961565b5b828206905092915050565b7f4e487b7100000000000000000000000000000000000000000000000000000000600052601160045260246000fd5b7f4e487b7100000000000000000000000000000000000000000000000000000000600052601260045260246000fd5b7f4e487b7100000000000000000000000000000000000000000000000000000000600052602260045260246000fd5b7f4e487b7100000000000000000000000000000000000000000000000000000000600052604160045260246000fd5b6000601f19601f8301169050919050565b7f68747470733a2f2f6e6674707265766965772e30786465762e636f6465732f3f60008201527f636f64653d000000000000000000000000000000000000000000000000000000602082015250565b7f4552433732313a207472616e7366657220746f206e6f6e20455243373231526560008201527f63656976657220696d706c656d656e7465720000000000000000000000000000602082015250565b7f4552433732313a20746f6b656e20616c7265616479206d696e74656400000000600082015250565b7f546865206c696d6974206f66203432204d65616e696e67206f66204c6966652060008201527f4e46547320686173206265656e20726561636865642e00000000000000000000602082015250565b7f4649525354000000000000000000000000000000000000000000000000000000600082015250565b7f4552433732313a207472616e7366657220746f20746865207a65726f2061646460008201527f7265737300000000000000000000000000000000000000000000000000000000602082015250565b7f4552433732313a20617070726f766520746f2063616c6c657200000000000000600082015250565b7f222c20226465736372697074696f6e223a20224120686967686c79206163636c60008201527f61696d656420636f6c6c656374696f6e206f6620737175617265732e222c202260208201527f696d616765223a2022646174613a696d6167652f7376672b786d6c3b6261736560408201527f36342c0000000000000000000000000000000000000000000000000000000000606082015250565b7f4552433732313a206f70657261746f7220717565727920666f72206e6f6e657860008201527f697374656e7420746f6b656e0000000000000000000000000000000000000000602082015250565b7f3c2f746578743e3c2f7376673e00000000000000000000000000000000000000600082015250565b7f4552433732313a20617070726f76652063616c6c6572206973206e6f74206f7760008201527f6e6572206e6f7220617070726f76656420666f7220616c6c0000000000000000602082015250565b7f4552433732313a2062616c616e636520717565727920666f7220746865207a6560008201527f726f206164647265737300000000000000000000000000000000000000000000602082015250565b7f4552433732313a206f776e657220717565727920666f72206e6f6e657869737460008201527f656e7420746f6b656e0000000000000000000000000000000000000000000000602082015250565b7f45524337323155524953746f726167653a2055524920736574206f66206e6f6e60008201527f6578697374656e7420746f6b656e000000000000000000000000000000000000602082015250565b7f5345434f4e440000000000000000000000000000000000000000000000000000600082015250565b7f227d000000000000000000000000000000000000000000000000000000000000600082015250565b7f4552433732313a206d696e7420746f20746865207a65726f2061646472657373600082015250565b7f45524337323155524953746f726167653a2055524920717565727920666f722060008201527f6e6f6e6578697374656e7420746f6b656e000000000000000000000000000000602082015250565b7f4552433732313a20617070726f76656420717565727920666f72206e6f6e657860008201527f697374656e7420746f6b656e0000000000000000000000000000000000000000602082015250565b7f4552433732313a207472616e73666572206f6620746f6b656e2074686174206960008201527f73206e6f74206f776e0000000000000000000000000000000000000000000000602082015250565b7f4552433732314d657461646174613a2055524920717565727920666f72206e6f60008201527f6e6578697374656e7420746f6b656e0000000000000000000000000000000000602082015250565b7f7b226e616d65223a202200000000000000000000000000000000000000000000600082015250565b7f5448495244000000000000000000000000000000000000000000000000000000600082015250565b7f4552433732313a20617070726f76616c20746f2063757272656e74206f776e6560008201527f7200000000000000000000000000000000000000000000000000000000000000602082015250565b7f646174613a6170706c69636174696f6e2f6a736f6e3b6261736536342c000000600082015250565b7f4552433732313a207472616e736665722063616c6c6572206973206e6f74206f60008201527f776e6572206e6f7220617070726f766564000000000000000000000000000000602082015250565b7f434f4c4f52000000000000000000000000000000000000000000000000000000600082015250565b6141078161379f565b811461411257600080fd5b50565b61411e816137b1565b811461412957600080fd5b50565b614135816137bd565b811461414057600080fd5b50565b61414c81613809565b811461415757600080fd5b5056fe57652068617665202564204d65616e696e67206f66204c696665204e465473206d696e746564416e204e465420772f20494420257320686173206265656e206d696e74656420746f2025734142434445464748494a4b4c4d4e4f505152535455565758595a6162636465666768696a6b6c6d6e6f707172737475767778797a303132333435363738392b2fa26469706673582212204981f9e9c8fbefcef7005f30d52f4b72b359bb2229c77c1f671270faa3b04ab164736f6c63430008040033272f3e3c7465787420783d273530252720793d273330252720636c6173733d27626173652720646f6d696e616e742d626173656c696e653d276d6964646c652720746578742d616e63686f723d276d6964646c65273e3c73766720786d6c6e733d27687474703a2f2f7777772e77332e6f72672f323030302f73766727207072657365727665417370656374526174696f3d27784d696e594d696e206d656574272076696577426f783d273020302033353020333530273e3c7374796c653e2e62617365207b2066696c6c3a20233138313831383b20666f6e742d66616d696c793a206176656e69723b20666f6e742d73697a653a20323070783b207d3c2f7374796c653e3c726563742077696474683d273130302527206865696768743d2731303025272066696c6c3d27",
  "linkReferences": {},
  "deployedLinkReferences": {}
}